{
  "_format": "hh-sol-artifact-1",
  "contractName": "NexusVault",
  "sourceName": "contracts/NexusVault.sol",
  "abi": [
    {
      "inputs": [
        {
          "internalType": "address",
          "name": "_owner",
          "type": "address"
        },
        {
          "internalType": "address[]",
          "name": "_beneficiaries",
          "type": "address[]"
        },
        {
          "internalType": "uint256[]",
          "name": "_shares",
          "type": "uint256[]"
        },
        {
          "internalType": "uint256",
          "name": "_inactivityPeriod",
          "type": "uint256"
        },
        {
          "internalType": "address",
          "name": "_feeRecipient",
          "type": "address"
        }
      ],
      "stateMutability": "nonpayable",
      "type": "constructor"
    },
    {
      "anonymous": false,
      "inputs": [
        {
          "indexed": true,
          "internalType": "address",
          "name": "sender",
          "type": "address"
        },
        {
          "indexed": false,
          "internalType": "uint256",
          "name": "amount",
          "type": "uint256"
        }
      ],
      "name": "FundsReceived",
      "type": "event"
    },
    {
      "anonymous": false,
      "inputs": [
        {
          "indexed": false,
          "internalType": "address[]",
          "name": "beneficiaries",
          "type": "address[]"
        },
        {
          "indexed": false,
          "internalType": "uint256",
          "name": "sharePerBeneficiary",
          "type": "uint256"
        }
      ],
      "name": "InheritanceExecuted",
      "type": "event"
    },
    {
      "anonymous": false,
      "inputs": [
        {
          "indexed": true,
          "internalType": "address",
          "name": "owner",
          "type": "address"
        },
        {
          "indexed": false,
          "internalType": "uint256",
          "name": "timestamp",
          "type": "uint256"
        }
      ],
      "name": "Pinged",
      "type": "event"
    },
    {
      "anonymous": false,
      "inputs": [
        {
          "indexed": false,
          "internalType": "string",
          "name": "cid",
          "type": "string"
        }
      ],
      "name": "WillDocumentSet",
      "type": "event"
    },
    {
      "inputs": [],
      "name": "FEE_BPS",
      "outputs": [
        {
          "internalType": "uint256",
          "name": "",
          "type": "uint256"
        }
      ],
      "stateMutability": "view",
      "type": "function"
    },
    {
      "inputs": [
        {
          "internalType": "uint256",
          "name": "",
          "type": "uint256"
        }
      ],
      "name": "beneficiaries",
      "outputs": [
        {
          "internalType": "address",
          "name": "",
          "type": "address"
        }
      ],
      "stateMutability": "view",
      "type": "function"
    },
    {
      "inputs": [],
      "name": "cancelVault",
      "outputs": [],
      "stateMutability": "nonpayable",
      "type": "function"
    },
    {
      "inputs": [
        {
          "internalType": "bytes",
          "name": "",
          "type": "bytes"
        }
      ],
      "name": "checkUpkeep",
      "outputs": [
        {
          "internalType": "bool",
          "name": "upkeepNeeded",
          "type": "bool"
        },
        {
          "internalType": "bytes",
          "name": "",
          "type": "bytes"
        }
      ],
      "stateMutability": "view",
      "type": "function"
    },
    {
      "inputs": [
        {
          "internalType": "address",
          "name": "token",
          "type": "address"
        }
      ],
      "name": "claimERC20",
      "outputs": [],
      "stateMutability": "nonpayable",
      "type": "function"
    },
    {
      "inputs": [],
      "name": "executeInheritance",
      "outputs": [],
      "stateMutability": "nonpayable",
      "type": "function"
    },
    {
      "inputs": [],
      "name": "executed",
      "outputs": [
        {
          "internalType": "bool",
          "name": "",
          "type": "bool"
        }
      ],
      "stateMutability": "view",
      "type": "function"
    },
    {
      "inputs": [],
      "name": "feeRecipient",
      "outputs": [
        {
          "internalType": "address",
          "name": "",
          "type": "address"
        }
      ],
      "stateMutability": "view",
      "type": "function"
    },
    {
      "inputs": [],
      "name": "getBalance",
      "outputs": [
        {
          "internalType": "uint256",
          "name": "",
          "type": "uint256"
        }
      ],
      "stateMutability": "view",
      "type": "function"
    },
    {
      "inputs": [],
      "name": "getBeneficiaries",
      "outputs": [
        {
          "internalType": "address[]",
          "name": "",
          "type": "address[]"
        }
      ],
      "stateMutability": "view",
      "type": "function"
    },
    {
      "inputs": [],
      "name": "getTimeRemaining",
      "outputs": [
        {
          "internalType": "uint256",
          "name": "",
          "type": "uint256"
        }
      ],
      "stateMutability": "view",
      "type": "function"
    },
    {
      "inputs": [],
      "name": "inactivityPeriod",
      "outputs": [
        {
          "internalType": "uint256",
          "name": "",
          "type": "uint256"
        }
      ],
      "stateMutability": "view",
      "type": "function"
    },
    {
      "inputs": [
        {
          "internalType": "address",
          "name": "token",
          "type": "address"
        }
      ],
      "name": "isWhitelisted",
      "outputs": [
        {
          "internalType": "bool",
          "name": "",
          "type": "bool"
        }
      ],
      "stateMutability": "view",
      "type": "function"
    },
    {
      "inputs": [],
      "name": "lastPing",
      "outputs": [
        {
          "internalType": "uint256",
          "name": "",
          "type": "uint256"
        }
      ],
      "stateMutability": "view",
      "type": "function"
    },
    {
      "inputs": [],
      "name": "owner",
      "outputs": [
        {
          "internalType": "address",
          "name": "",
          "type": "address"
        }
      ],
      "stateMutability": "view",
      "type": "function"
    },
    {
      "inputs": [
        {
          "internalType": "bytes",
          "name": "",
          "type": "bytes"
        }
      ],
      "name": "performUpkeep",
      "outputs": [],
      "stateMutability": "nonpayable",
      "type": "function"
    },
    {
      "inputs": [],
      "name": "ping",
      "outputs": [],
      "stateMutability": "nonpayable",
      "type": "function"
    },
    {
      "inputs": [
        {
          "internalType": "address[]",
          "name": "tokens",
          "type": "address[]"
        }
      ],
      "name": "setTokenWhitelist",
      "outputs": [],
      "stateMutability": "nonpayable",
      "type": "function"
    },
    {
      "inputs": [
        {
          "internalType": "string",
          "name": "cid",
          "type": "string"
        }
      ],
      "name": "setWillDocumentHash",
      "outputs": [],
      "stateMutability": "nonpayable",
      "type": "function"
    },
    {
      "inputs": [
        {
          "internalType": "uint256",
          "name": "",
          "type": "uint256"
        }
      ],
      "name": "shares",
      "outputs": [
        {
          "internalType": "uint256",
          "name": "",
          "type": "uint256"
        }
      ],
      "stateMutability": "view",
      "type": "function"
    },
    {
      "inputs": [
        {
          "internalType": "uint256",
          "name": "",
          "type": "uint256"
        }
      ],
      "name": "tokenWhitelist",
      "outputs": [
        {
          "internalType": "address",
          "name": "",
          "type": "address"
        }
      ],
      "stateMutability": "view",
      "type": "function"
    },
    {
      "inputs": [
        {
          "internalType": "address[]",
          "name": "_beneficiaries",
          "type": "address[]"
        },
        {
          "internalType": "uint256[]",
          "name": "_shares",
          "type": "uint256[]"
        }
      ],
      "name": "updateBeneficiaries",
      "outputs": [],
      "stateMutability": "nonpayable",
      "type": "function"
    },
    {
      "inputs": [],
      "name": "willDocumentHash",
      "outputs": [
        {
          "internalType": "string",
          "name": "",
          "type": "string"
        }
      ],
      "stateMutability": "view",
      "type": "function"
    },
    {
      "stateMutability": "payable",
      "type": "receive"
    }
  ],
  "bytecode": "0x60806040523480156200001157600080fd5b5060405162001f7b38038062001f7b83398101604081905262000034916200044d565b60016000558351620000805760405162461bcd60e51b815260206004820152601060248201526f4e6f2062656e6566696369617269657360801b60448201526064015b60405180910390fd5b60008211620000d25760405162461bcd60e51b815260206004820152601960248201527f496e76616c696420696e616374697669747920706572696f6400000000000000604482015260640162000077565b8251845114620001175760405162461bcd60e51b815260206004820152600f60248201526e0d8cadccee8d040dad2e6dac2e8c6d608b1b604482015260640162000077565b6001600160a01b0381166200016f5760405162461bcd60e51b815260206004820152601560248201527f496e76616c69642066656520726563697069656e740000000000000000000000604482015260640162000077565b6000805b8451811015620001b2578481815181106200019257620001926200054e565b602002602001015182620001a7919062000564565b915060010162000173565b508061271014620002065760405162461bcd60e51b815260206004820152601860248201527f736861726573206d7573742073756d20746f2031303030300000000000000000604482015260640162000077565b600180546001600160a01b0319166001600160a01b0388161790558451620002369060029060208801906200028b565b5083516200024c906003906020870190620002f5565b5050600591909155426004556006805460ff19169055600880546001600160a01b0319166001600160a01b03909216919091179055506200058c915050565b828054828255906000526020600020908101928215620002e3579160200282015b82811115620002e357825182546001600160a01b0319166001600160a01b03909116178255602090920191600190910190620002ac565b50620002f192915062000333565b5090565b828054828255906000526020600020908101928215620002e3579160200282015b82811115620002e357825182559160200191906001019062000316565b5b80821115620002f1576000815560010162000334565b80516001600160a01b03811681146200036257600080fd5b919050565b634e487b7160e01b600052604160045260246000fd5b604051601f8201601f191681016001600160401b0381118282101715620003a857620003a862000367565b604052919050565b60006001600160401b03821115620003cc57620003cc62000367565b5060051b60200190565b600082601f830112620003e857600080fd5b8151602062000401620003fb83620003b0565b6200037d565b8083825260208201915060208460051b8701019350868411156200042457600080fd5b602086015b8481101562000442578051835291830191830162000429565b509695505050505050565b600080600080600060a086880312156200046657600080fd5b62000471866200034a565b602087810151919650906001600160401b03808211156200049157600080fd5b818901915089601f830112620004a657600080fd5b8151620004b7620003fb82620003b0565b81815260059190911b8301840190848101908c831115620004d757600080fd5b938501935b828510156200050057620004f0856200034a565b82529385019390850190620004dc565b60408c015190995094505050808311156200051a57600080fd5b50506200052a88828901620003d6565b9350506060860151915062000542608087016200034a565b90509295509295909350565b634e487b7160e01b600052603260045260246000fd5b808201808211156200058657634e487b7160e01b600052601160045260246000fd5b92915050565b6119df806200059c6000396000f3fe6080604052600436106101445760003560e01c8063674c67a0116100b6578063b0f133a81161006f578063b0f133a8146103b0578063bf333f2c146103d2578063d2df3e0f146103e7578063d362bd2b14610407578063dac6270d1461041d578063efeb5e581461043257600080fd5b8063674c67a0146102f65780636e04ff0d14610316578063744edcb6146103445780638da5cb5b14610359578063913b722c14610379578063998a08de1461039b57600080fd5b80634585e33b116101085780634585e33b14610229578063469048401461024957806351a383651461028157806357a858fc146102a15780635c36b186146102c157806362d49284146102d657600080fd5b806303a5b1ed1461018557806312065fe0146101a75780632760c57e146101c957806331a38c89146101df5780633af32abf1461020957600080fd5b366101805760405134815233907f8e47b87b0ef542cdfa1659c551d88bad38aa7f452d2bbb349ab7530dfec8be8f9060200160405180910390a2005b600080fd5b34801561019157600080fd5b506101a56101a03660046113d8565b610452565b005b3480156101b357600080fd5b50475b6040519081526020015b60405180910390f35b3480156101d557600080fd5b506101b660045481565b3480156101eb57600080fd5b506006546101f99060ff1681565b60405190151581526020016101c0565b34801561021557600080fd5b506101f961022436600461141a565b610496565b34801561023557600080fd5b506101a561024436600461144a565b6104f5565b34801561025557600080fd5b50600854610269906001600160a01b031681565b6040516001600160a01b0390911681526020016101c0565b34801561028d57600080fd5b506101a561029c3660046114d2565b610501565b3480156102ad57600080fd5b506101b66102bc366004611583565b610572565b3480156102cd57600080fd5b506101a5610593565b3480156102e257600080fd5b506102696102f1366004611583565b61061d565b34801561030257600080fd5b506101a561031136600461159c565b610647565b34801561032257600080fd5b5061033661033136600461144a565b6107c2565b6040516101c0929190611658565b34801561035057600080fd5b506101a5610811565b34801561036557600080fd5b50600154610269906001600160a01b031681565b34801561038557600080fd5b5061038e610b05565b6040516101c09190611673565b3480156103a757600080fd5b506101a5610b67565b3480156103bc57600080fd5b506103c5610c0e565b6040516101c091906116c0565b3480156103de57600080fd5b506101b6606481565b3480156103f357600080fd5b506101a561040236600461141a565b610c9c565b34801561041357600080fd5b506101b660055481565b34801561042957600080fd5b506101b6610fa3565b34801561043e57600080fd5b5061026961044d366004611583565b610fd7565b6001546001600160a01b031633146104855760405162461bcd60e51b815260040161047c906116d3565b60405180910390fd5b610491600983836112e0565b505050565b6000805b6009548110156104ec57826001600160a01b0316600982815481106104c1576104c16116f6565b6000918252602090912001546001600160a01b0316036104e45750600192915050565b60010161049a565b50600092915050565b6104fd610811565b5050565b6001546001600160a01b0316331461052b5760405162461bcd60e51b815260040161047c906116d3565b6007610537828261178e565b507f803b21df70f6190dd09372703d9fa6164b77ab7a80db3647772dc332da5e072c8160405161056791906116c0565b60405180910390a150565b6003818154811061058257600080fd5b600091825260209091200154905081565b6001546001600160a01b031633146105bd5760405162461bcd60e51b815260040161047c906116d3565b60065460ff16156105e05760405162461bcd60e51b815260040161047c9061184e565b42600481905560405190815233907f78a327424158f99dcde9deeb550e97c0f1d53b23ebaec3ac54a53f58504b3c859060200160405180910390a2565b6009818154811061062d57600080fd5b6000918252602090912001546001600160a01b0316905081565b6001546001600160a01b031633146106715760405162461bcd60e51b815260040161047c906116d3565b60065460ff16156106945760405162461bcd60e51b815260040161047c9061184e565b826106d45760405162461bcd60e51b815260206004820152601060248201526f4e6f2062656e6566696369617269657360801b604482015260640161047c565b8281146107155760405162461bcd60e51b815260206004820152600f60248201526e0d8cadccee8d040dad2e6dac2e8c6d608b1b604482015260640161047c565b6000805b8281101561074f57838382818110610733576107336116f6565b9050602002013582610745919061188e565b9150600101610719565b5080612710146107a15760405162461bcd60e51b815260206004820152601860248201527f736861726573206d7573742073756d20746f2031303030300000000000000000604482015260640161047c565b6107ad600286866112e0565b506107ba60038484611343565b505050505050565b60065460009060609060ff161580156107e957506005546004546107e6919061188e565b42115b80156107f55750600047115b60408051602081019091526000815290925090505b9250929050565b610819610fe7565b60065460ff161561083c5760405162461bcd60e51b815260040161047c9061184e565b60055460045461084c919061188e565b421161089a5760405162461bcd60e51b815260206004820152601d60248201527f496e616374697669747920706572696f64206e6f7420656c6170736564000000604482015260640161047c565b600047116108e15760405162461bcd60e51b81526020600482015260146024820152734e6f2045544820746f206469737472696275746560601b604482015260640161047c565b6002546109235760405162461bcd60e51b815260206004820152601060248201526f4e6f2062656e6566696369617269657360801b604482015260640161047c565b6003546002541461096f5760405162461bcd60e51b81526020600482015260166024820152750e6d0c2e4cae640d8cadccee8d040dad2e6dac2e8c6d60531b604482015260640161047c565b6006805460ff1916600117905547600061271061098d6064846118a7565b61099791906118be565b6008546040519192506001600160a01b03169082156108fc029083906000818181858888f193505050501580156109d2573d6000803e3d6000fd5b50476000805b600254811015610aad576002546000906109f4906001906118e0565b8203610a0b57610a0483856118e0565b9050610a44565b61271060038381548110610a2157610a216116f6565b906000526020600020015485610a3791906118a7565b610a4191906118be565b90505b610a4e818461188e565b925060028281548110610a6357610a636116f6565b60009182526020822001546040516001600160a01b039091169183156108fc02918491818181858888f19350505050158015610aa3573d6000803e3d6000fd5b50506001016109d8565b50600280547ff38bc2b90bbd4be523ddc4c105547625afe80e176dadb5dc114aaff96ea78cc79190610adf90846118be565b604051610aed9291906118f3565b60405180910390a150505050610b036001600055565b565b60606002805480602002602001604051908101604052809291908181526020018280548015610b5d57602002820191906000526020600020905b81546001600160a01b03168152600190910190602001808311610b3f575b5050505050905090565b6001546001600160a01b03163314610b915760405162461bcd60e51b815260040161047c906116d3565b610b99610fe7565b60065460ff1615610bbc5760405162461bcd60e51b815260040161047c9061184e565b6006805460ff19166001908117909155546040516001600160a01b03909116904780156108fc02916000818181858888f19350505050158015610c03573d6000803e3d6000fd5b50610b036001600055565b60078054610c1b9061170c565b80601f0160208091040260200160405190810160405280929190818152602001828054610c479061170c565b8015610c945780601f10610c6957610100808354040283529160200191610c94565b820191906000526020600020905b815481529060010190602001808311610c7757829003601f168201915b505050505081565b610ca4610fe7565b60065460ff16610ce95760405162461bcd60e51b815260206004820152601060248201526f139bdd081e595d08195e1958dd5d195960821b604482015260640161047c565b610cf281610496565b610d335760405162461bcd60e51b8152602060048201526012602482015271151bdad95b881b9bdd08185c1c1c9bdd995960721b604482015260640161047c565b6040516370a0823160e01b815230600482015281906000906001600160a01b038316906370a0823190602401602060405180830381865afa158015610d7c573d6000803e3d6000fd5b505050506040513d601f19601f82011682018060405250810190610da09190611952565b905060008111610de55760405162461bcd60e51b815260206004820152601060248201526f4e6f20746f6b656e2062616c616e636560801b604482015260640161047c565b6000612710610df56064846118a7565b610dff91906118be565b600854909150610e1c906001600160a01b03858116911683611040565b6040516370a0823160e01b81523060048201526000906001600160a01b038516906370a0823190602401602060405180830381865afa158015610e63573d6000803e3d6000fd5b505050506040513d601f19601f82011682018060405250810190610e879190611952565b60035460025491925014610ed65760405162461bcd60e51b81526020600482015260166024820152750e6d0c2e4cae640d8cadccee8d040dad2e6dac2e8c6d60531b604482015260640161047c565b6000805b600254811015610f9057600254600090610ef6906001906118e0565b8203610f0d57610f0683856118e0565b9050610f46565b61271060038381548110610f2357610f236116f6565b906000526020600020015485610f3991906118a7565b610f4391906118be565b90505b610f50818461188e565b9250610f8760028381548110610f6857610f686116f6565b6000918252602090912001546001600160a01b03898116911683611040565b50600101610eda565b505050505050610fa06001600055565b50565b600080600554600454610fb6919061188e565b9050804210610fc757600091505090565b610fd142826118e0565b91505090565b6002818154811061062d57600080fd5b6002600054036110395760405162461bcd60e51b815260206004820152601f60248201527f5265656e7472616e637947756172643a207265656e7472616e742063616c6c00604482015260640161047c565b6002600055565b604080516001600160a01b03848116602483015260448083018590528351808403909101815260649092018352602080830180516001600160e01b031663a9059cbb60e01b17905283518085019094528084527f5361666545524332303a206c6f772d6c6576656c2063616c6c206661696c656490840152610491928692916000916110d0918516908490611150565b90508051600014806110f15750808060200190518101906110f1919061196b565b6104915760405162461bcd60e51b815260206004820152602a60248201527f5361666545524332303a204552433230206f7065726174696f6e20646964206e6044820152691bdd081cdd58d8d9595960b21b606482015260840161047c565b606061115f8484600085611167565b949350505050565b6060824710156111c85760405162461bcd60e51b815260206004820152602660248201527f416464726573733a20696e73756666696369656e742062616c616e636520666f6044820152651c8818d85b1b60d21b606482015260840161047c565b600080866001600160a01b031685876040516111e4919061198d565b60006040518083038185875af1925050503d8060008114611221576040519150601f19603f3d011682016040523d82523d6000602084013e611226565b606091505b509150915061123787838387611242565b979650505050505050565b606083156112b15782516000036112aa576001600160a01b0385163b6112aa5760405162461bcd60e51b815260206004820152601d60248201527f416464726573733a2063616c6c20746f206e6f6e2d636f6e7472616374000000604482015260640161047c565b508161115f565b61115f83838151156112c65781518083602001fd5b8060405162461bcd60e51b815260040161047c91906116c0565b828054828255906000526020600020908101928215611333579160200282015b828111156113335781546001600160a01b0319166001600160a01b03843516178255602090920191600190910190611300565b5061133f92915061137e565b5090565b828054828255906000526020600020908101928215611333579160200282015b82811115611333578235825591602001919060010190611363565b5b8082111561133f576000815560010161137f565b60008083601f8401126113a557600080fd5b50813567ffffffffffffffff8111156113bd57600080fd5b6020830191508360208260051b850101111561080a57600080fd5b600080602083850312156113eb57600080fd5b823567ffffffffffffffff81111561140257600080fd5b61140e85828601611393565b90969095509350505050565b60006020828403121561142c57600080fd5b81356001600160a01b038116811461144357600080fd5b9392505050565b6000806020838503121561145d57600080fd5b823567ffffffffffffffff8082111561147557600080fd5b818501915085601f83011261148957600080fd5b81358181111561149857600080fd5b8660208285010111156114aa57600080fd5b60209290920196919550909350505050565b634e487b7160e01b600052604160045260246000fd5b6000602082840312156114e457600080fd5b813567ffffffffffffffff808211156114fc57600080fd5b818401915084601f83011261151057600080fd5b813581811115611522576115226114bc565b604051601f8201601f19908116603f0116810190838211818310171561154a5761154a6114bc565b8160405282815287602084870101111561156357600080fd5b826020860160208301376000928101602001929092525095945050505050565b60006020828403121561159557600080fd5b5035919050565b600080600080604085870312156115b257600080fd5b843567ffffffffffffffff808211156115ca57600080fd5b6115d688838901611393565b909650945060208701359150808211156115ef57600080fd5b506115fc87828801611393565b95989497509550505050565b60005b8381101561162357818101518382015260200161160b565b50506000910152565b60008151808452611644816020860160208601611608565b601f01601f19169290920160200192915050565b821515815260406020820152600061115f604083018461162c565b6020808252825182820181905260009190848201906040850190845b818110156116b45783516001600160a01b03168352928401929184019160010161168f565b50909695505050505050565b602081526000611443602083018461162c565b6020808252600990820152682737ba1037bbb732b960b91b604082015260600190565b634e487b7160e01b600052603260045260246000fd5b600181811c9082168061172057607f821691505b60208210810361174057634e487b7160e01b600052602260045260246000fd5b50919050565b601f821115610491576000816000526020600020601f850160051c8101602086101561176f5750805b601f850160051c820191505b818110156107ba5782815560010161177b565b815167ffffffffffffffff8111156117a8576117a86114bc565b6117bc816117b6845461170c565b84611746565b602080601f8311600181146117f157600084156117d95750858301515b600019600386901b1c1916600185901b1785556107ba565b600085815260208120601f198616915b8281101561182057888601518255948401946001909101908401611801565b508582101561183e5787850151600019600388901b60f8161c191681555b5050505050600190811b01905550565b60208082526010908201526f105b1c9958591e48195e1958dd5d195960821b604082015260600190565b634e487b7160e01b600052601160045260246000fd5b808201808211156118a1576118a1611878565b92915050565b80820281158282048414176118a1576118a1611878565b6000826118db57634e487b7160e01b600052601260045260246000fd5b500490565b818103818111156118a1576118a1611878565b600060408201604083528085548083526060850191508660005260209250602060002060005b8281101561193e5781546001600160a01b031684529284019260019182019101611919565b505050602093909301939093525092915050565b60006020828403121561196457600080fd5b5051919050565b60006020828403121561197d57600080fd5b8151801515811461144357600080fd5b6000825161199f818460208701611608565b919091019291505056fea2646970667358221220651ff332e7ea1522fa00a9a0744a6f08bf2b4f667dc70562b1e99b6869eb5fc064736f6c63430008180033",
  "linkReferences": {},
  "deployedLinkReferences": {}
}