{
  "_format": "hh-sol-artifact-1",
  "contractName": "WillRegistry",
  "sourceName": "contracts/WillRegistry.sol",
  "abi": [
    {
      "anonymous": false,
      "inputs": [
        {
          "indexed": true,
          "internalType": "address",
          "name": "owner",
          "type": "address"
        },
        {
          "indexed": true,
          "internalType": "address",
          "name": "trustee",
          "type": "address"
        }
      ],
      "name": "ApprovalSubmitted",
      "type": "event"
    },
    {
      "anonymous": false,
      "inputs": [
        {
          "indexed": true,
          "internalType": "address",
          "name": "owner",
          "type": "address"
        },
        {
          "indexed": false,
          "internalType": "address",
          "name": "branchRoot",
          "type": "address"
        }
      ],
      "name": "BranchAtRisk",
      "type": "event"
    },
    {
      "anonymous": false,
      "inputs": [
        {
          "indexed": true,
          "internalType": "address",
          "name": "owner",
          "type": "address"
        },
        {
          "indexed": false,
          "internalType": "address",
          "name": "inactive",
          "type": "address"
        },
        {
          "indexed": false,
          "internalType": "address",
          "name": "replacement",
          "type": "address"
        }
      ],
      "name": "ReplacementActivated",
      "type": "event"
    },
    {
      "anonymous": false,
      "inputs": [
        {
          "indexed": true,
          "internalType": "address",
          "name": "owner",
          "type": "address"
        },
        {
          "indexed": false,
          "internalType": "address",
          "name": "trustee",
          "type": "address"
        },
        {
          "indexed": false,
          "internalType": "address",
          "name": "parent",
          "type": "address"
        }
      ],
      "name": "TrusteeAdded",
      "type": "event"
    },
    {
      "anonymous": false,
      "inputs": [
        {
          "indexed": true,
          "internalType": "address",
          "name": "owner",
          "type": "address"
        },
        {
          "indexed": false,
          "internalType": "address",
          "name": "trustee",
          "type": "address"
        }
      ],
      "name": "TrusteeApprovedByOwner",
      "type": "event"
    },
    {
      "anonymous": false,
      "inputs": [
        {
          "indexed": true,
          "internalType": "address",
          "name": "owner",
          "type": "address"
        },
        {
          "indexed": true,
          "internalType": "address",
          "name": "beneficiary",
          "type": "address"
        }
      ],
      "name": "WillCreated",
      "type": "event"
    },
    {
      "anonymous": false,
      "inputs": [
        {
          "indexed": true,
          "internalType": "address",
          "name": "owner",
          "type": "address"
        },
        {
          "indexed": true,
          "internalType": "address",
          "name": "beneficiary",
          "type": "address"
        },
        {
          "indexed": false,
          "internalType": "string",
          "name": "ipfsCID",
          "type": "string"
        }
      ],
      "name": "WillExecuted",
      "type": "event"
    },
    {
      "anonymous": false,
      "inputs": [
        {
          "indexed": true,
          "internalType": "address",
          "name": "owner",
          "type": "address"
        }
      ],
      "name": "WillSealed",
      "type": "event"
    },
    {
      "inputs": [
        {
          "internalType": "address",
          "name": "willOwner",
          "type": "address"
        },
        {
          "internalType": "address",
          "name": "inactive",
          "type": "address"
        },
        {
          "internalType": "address",
          "name": "replacement",
          "type": "address"
        }
      ],
      "name": "activateReplacement",
      "outputs": [],
      "stateMutability": "nonpayable",
      "type": "function"
    },
    {
      "inputs": [
        {
          "internalType": "address",
          "name": "member",
          "type": "address"
        }
      ],
      "name": "addToReplacementPool",
      "outputs": [],
      "stateMutability": "nonpayable",
      "type": "function"
    },
    {
      "inputs": [
        {
          "internalType": "address",
          "name": "trustee",
          "type": "address"
        },
        {
          "internalType": "address",
          "name": "parent",
          "type": "address"
        }
      ],
      "name": "addTrustee",
      "outputs": [],
      "stateMutability": "nonpayable",
      "type": "function"
    },
    {
      "inputs": [
        {
          "internalType": "address",
          "name": "trustee",
          "type": "address"
        }
      ],
      "name": "approveTrustee",
      "outputs": [],
      "stateMutability": "nonpayable",
      "type": "function"
    },
    {
      "inputs": [
        {
          "internalType": "address",
          "name": "willOwner",
          "type": "address"
        }
      ],
      "name": "checkFullConsensus",
      "outputs": [
        {
          "internalType": "bool",
          "name": "",
          "type": "bool"
        }
      ],
      "stateMutability": "view",
      "type": "function"
    },
    {
      "inputs": [
        {
          "internalType": "address",
          "name": "beneficiary",
          "type": "address"
        },
        {
          "internalType": "address",
          "name": "vaultAddress",
          "type": "address"
        },
        {
          "internalType": "string",
          "name": "ipfsCID",
          "type": "string"
        }
      ],
      "name": "createWill",
      "outputs": [],
      "stateMutability": "nonpayable",
      "type": "function"
    },
    {
      "inputs": [
        {
          "internalType": "address",
          "name": "willOwner",
          "type": "address"
        }
      ],
      "name": "executeWill",
      "outputs": [],
      "stateMutability": "nonpayable",
      "type": "function"
    },
    {
      "inputs": [
        {
          "internalType": "address",
          "name": "willOwner",
          "type": "address"
        }
      ],
      "name": "getTrustTree",
      "outputs": [
        {
          "components": [
            {
              "internalType": "address",
              "name": "wallet",
              "type": "address"
            },
            {
              "internalType": "bool",
              "name": "zkVerified",
              "type": "bool"
            },
            {
              "internalType": "bool",
              "name": "approvedByOwner",
              "type": "bool"
            },
            {
              "internalType": "bool",
              "name": "hasApproved",
              "type": "bool"
            },
            {
              "internalType": "bool",
              "name": "isActive",
              "type": "bool"
            },
            {
              "internalType": "address[]",
              "name": "backups",
              "type": "address[]"
            },
            {
              "internalType": "address",
              "name": "parent",
              "type": "address"
            }
          ],
          "internalType": "struct WillRegistry.TrusteeNode[]",
          "name": "",
          "type": "tuple[]"
        }
      ],
      "stateMutability": "view",
      "type": "function"
    },
    {
      "inputs": [
        {
          "internalType": "address",
          "name": "willOwner",
          "type": "address"
        }
      ],
      "name": "getWillStatus",
      "outputs": [
        {
          "components": [
            {
              "internalType": "address",
              "name": "owner",
              "type": "address"
            },
            {
              "internalType": "address",
              "name": "beneficiary",
              "type": "address"
            },
            {
              "internalType": "address",
              "name": "vaultAddress",
              "type": "address"
            },
            {
              "internalType": "string",
              "name": "ipfsCID",
              "type": "string"
            },
            {
              "internalType": "address[]",
              "name": "level1",
              "type": "address[]"
            },
            {
              "internalType": "address[]",
              "name": "replacementPool",
              "type": "address[]"
            },
            {
              "internalType": "bool",
              "name": "isSealed",
              "type": "bool"
            },
            {
              "internalType": "bool",
              "name": "executed",
              "type": "bool"
            },
            {
              "internalType": "uint256",
              "name": "createdAt",
              "type": "uint256"
            }
          ],
          "internalType": "struct WillRegistry.WillData",
          "name": "",
          "type": "tuple"
        }
      ],
      "stateMutability": "view",
      "type": "function"
    },
    {
      "inputs": [
        {
          "internalType": "address",
          "name": "trustee",
          "type": "address"
        },
        {
          "internalType": "uint256",
          "name": "nullifierHash",
          "type": "uint256"
        }
      ],
      "name": "markZKVerified",
      "outputs": [],
      "stateMutability": "nonpayable",
      "type": "function"
    },
    {
      "inputs": [
        {
          "internalType": "address",
          "name": "",
          "type": "address"
        },
        {
          "internalType": "address",
          "name": "",
          "type": "address"
        }
      ],
      "name": "nullifierHashes",
      "outputs": [
        {
          "internalType": "uint256",
          "name": "",
          "type": "uint256"
        }
      ],
      "stateMutability": "view",
      "type": "function"
    },
    {
      "inputs": [],
      "name": "sealWill",
      "outputs": [],
      "stateMutability": "nonpayable",
      "type": "function"
    },
    {
      "inputs": [
        {
          "internalType": "address",
          "name": "willOwner",
          "type": "address"
        }
      ],
      "name": "submitApproval",
      "outputs": [],
      "stateMutability": "nonpayable",
      "type": "function"
    }
  ],
  "bytecode": "0x608060405234801561001057600080fd5b50612016806100206000396000f3fe608060405234801561001057600080fd5b50600436106100cf5760003560e01c8063a09716dd1161008c578063c6c6c7be11610066578063c6c6c7be146101cf578063dc3afcd9146101e2578063dfd2a54a146101f5578063e854d1351461020857600080fd5b8063a09716dd14610163578063a66ac24014610183578063ac419cfc146101bc57600080fd5b806325343bf7146100d45780632dc922a7146100e95780636610f3f6146100fc5780638276ce77146101255780638e2a2a041461014857806392c51b221461015b575b600080fd5b6100e76100e2366004611975565b61021b565b005b6100e76100f7366004611a47565b6103bd565b61010f61010a366004611a8a565b610651565b60405161011c9190611af1565b60405180910390f35b610138610133366004611a8a565b61078c565b604051901515815260200161011c565b6100e7610156366004611bc4565b61091f565b6100e7610a5a565b610176610171366004611a8a565b610b3d565b60405161011c9190611c34565b6101ae610191366004611d15565b600360209081526000928352604080842090915290825290205481565b60405190815260200161011c565b6100e76101ca366004611d15565b610d53565b6100e76101dd366004611a8a565b611203565b6100e76101f0366004611a8a565b6112e0565b6100e7610203366004611a8a565b6114e3565b6100e7610216366004611a8a565b61163c565b6001600160a01b03831661026c5760405162461bcd60e51b8152602060048201526013602482015272496e76616c69642062656e656669636961727960681b60448201526064015b60405180910390fd5b6001600160a01b0382166102ba5760405162461bcd60e51b8152602060048201526015602482015274496e76616c6964207661756c74206164647265737360581b6044820152606401610263565b336000908152602081905260409020546001600160a01b0316156103205760405162461bcd60e51b815260206004820152601d60248201527f57696c6c20616c72656164792065786973747320666f72206f776e65720000006044820152606401610263565b33600081815260208190526040902080546001600160a01b0319908116909217815560018101805483166001600160a01b0387811691909117909155600282018054909316908516179091556003810161037a8382611dcd565b504260078201556040516001600160a01b0385169033907f19b0cad815d24c07aaa916842d617a9e8aa5dc7c762b1997b756561aecba106c90600090a350505050565b82336001600160a01b038216146104075760405162461bcd60e51b815260206004820152600e60248201526d2737ba103bb4b6361037bbb732b960911b6044820152606401610263565b6001600160a01b038085166000908152602081905260409020548591166104405760405162461bcd60e51b815260040161026390611e8d565b6001600160a01b03851660009081526020819052604090206006810154610100900460ff16156104825760405162461bcd60e51b815260040161026390611eba565b6001600160a01b0386811660009081526002602090815260408083208985168452909152808220549287168252902054816104ff5760405162461bcd60e51b815260206004820152601a60248201527f496e6163746976652074727573746565206e6f7420666f756e640000000000006044820152606401610263565b600081116105475760405162461bcd60e51b815260206004820152601560248201527414995c1b1858d95b595b9d081b9bdd08199bdd5b99605a1b6044820152606401610263565b6001600160a01b038816600090815260016020819052604082209061056c9085611ee9565b8154811061057c5761057c611f10565b600091825260208083206001600160a01b038d1684526001918290526040842060039093020193506105ae9085611ee9565b815481106105be576105be611f10565b60009182526020909120835460ff60b81b1990811685556003909202018054909116600160b81b1781556040519091506001600160a01b038b16907f79227efb122a233987e1e695eeaccdda588d5cef935b77a1cba46784fb5daa5e9061063d908c908c906001600160a01b0392831681529116602082015260400190565b60405180910390a250505050505050505050565b6001600160a01b0381166000908152600160209081526040808320805482518185028101850190935280835260609492939192909184015b828210156107815760008481526020908190206040805160e0810182526003860290920180546001600160a01b038116845260ff600160a01b82048116151585870152600160a81b82048116151585850152600160b01b8204811615156060860152600160b81b90910416151560808401526001810180548351818702810187019094528084529394919360a08601939283018282801561075357602002820191906000526020600020905b81546001600160a01b03168152600190910190602001808311610735575b5050509183525050600291909101546001600160a01b03166020918201529082526001929092019101610689565b505050509050919050565b6001600160a01b0380821660009081526020819052604081205490918391166107c75760405162461bcd60e51b815260040161026390611e8d565b6001600160a01b0383166000908152602081905260409020600681015460ff1615806107fc57506006810154610100900460ff165b1561080b576000925050610919565b6001600160a01b0384166000908152600160205260408120905b81548110156109115781818154811061084057610840611f10565b6000918252602090912060039091020154600160b81b900460ff16156109095781818154811061087257610872611f10565b6000918252602090912060039091020154600160a01b900460ff1615806108c357508181815481106108a6576108a6611f10565b6000918252602090912060039091020154600160a81b900460ff16155b806108f857508181815481106108db576108db611f10565b6000918252602090912060039091020154600160b01b900460ff16155b156109095760009450505050610919565b600101610825565b506001935050505b50919050565b33600090815260208190526040902080546001600160a01b03166109555760405162461bcd60e51b815260040161026390611f26565b6006810154610100900460ff161561097f5760405162461bcd60e51b815260040161026390611eba565b3360009081526002602090815260408083206001600160a01b0387168452909152902054806109e45760405162461bcd60e51b8152602060048201526011602482015270151c9d5cdd1959481b9bdd08199bdd5b99607a1b6044820152606401610263565b336000908152600160208190526040822090610a009084611ee9565b81548110610a1057610a10611f10565b60009182526020808320600392830201805460ff60a01b1916600160a01b17905533835290815260408083206001600160a01b039890981683529690529490942092909255505050565b33600090815260208190526040902080546001600160a01b0316610a905760405162461bcd60e51b815260040161026390611f26565b600681015460ff1615610ad65760405162461bcd60e51b815260206004820152600e60248201526d105b1c9958591e481cd9585b195960921b6044820152606401610263565b6006810154610100900460ff1615610b005760405162461bcd60e51b815260040161026390611eba565b60068101805460ff1916600117905560405133907ff5ccf4f3848b5cdd3d17f1a75d5099f88d860b5e0b587d6bb46dc0432a1c0bae90600090a250565b6040805161012080820183526000808352602080840182905283850182905260608085018190526080850181905260a0850181905260c0850183905260e0850183905261010085018390526001600160a01b038781168452838352928690208651948501875280548416855260018101548416928501929092526002820154909216948301949094526003840180549394929391840191610bdd90611d48565b80601f0160208091040260200160405190810160405280929190818152602001828054610c0990611d48565b8015610c565780601f10610c2b57610100808354040283529160200191610c56565b820191906000526020600020905b815481529060010190602001808311610c3957829003601f168201915b5050505050815260200160048201805480602002602001604051908101604052809291908181526020018280548015610cb857602002820191906000526020600020905b81546001600160a01b03168152600190910190602001808311610c9a575b5050505050815260200160058201805480602002602001604051908101604052809291908181526020018280548015610d1a57602002820191906000526020600020905b81546001600160a01b03168152600190910190602001808311610cfc575b5050509183525050600682015460ff80821615156020840152610100909104161515604082015260079091015460609091015292915050565b6001600160a01b038216610d9b5760405162461bcd60e51b815260206004820152600f60248201526e496e76616c6964207472757374656560881b6044820152606401610263565b33600090815260208190526040902080546001600160a01b0316610dd15760405162461bcd60e51b815260040161026390611f26565b6006810154610100900460ff1615610dfb5760405162461bcd60e51b815260040161026390611eba565b3360009081526001602052604090206001600160a01b038316610fb3576040805160e0810182526001600160a01b03868116825260006020808401828152848601838152606086018481526001608088018181528951878152808701909a5260a08901998a5260c089018790528a548083018c558b8852968690208951600390980201805495519451935191511515600160b81b0260ff60b81b19921515600160b01b0260ff60b01b19951515600160a81b029590951661ffff60a81b19961515600160a01b026001600160a81b031990981699909a1698909817959095179390931696909617171692909217825593518051939485949293610f059390850192909101906118c9565b5060c09190910151600291820180546001600160a01b03199081166001600160a01b03938416179091558454336000818152602095865260408082208c87168084529088528183209490945560048a018054600181018255908352918790209091018054909416831790935582519182529288169381019390935290917f27ddb6a1b3c833891ebc1fd1cc7818f635546853d154e5c599981c41f17304b1910160405180910390a2506111fd565b3360009081526002602090815260408083206001600160a01b0387168452909152902054806110175760405162461bcd60e51b815260206004820152601060248201526f14185c995b9d081b9bdd08199bdd5b9960821b6044820152606401610263565b600082611025600184611ee9565b8154811061103557611035611f10565b60009182526020808320600160039390930201828101805480850182559085528285200180546001600160a01b038c166001600160a01b031990911681179091556040805160e0810182529182528184018690528181018690526060820186905260808201949094528351858152928301909352935060a082019081526001600160a01b03888116602092830152865460018082018955600089815284902085516003909302018054868601516040880151606089015160808a0151969097166001600160a81b031990931692909217600160a01b911515919091021761ffff60a81b1916600160a81b9115159190910260ff60b01b191617600160b01b941515949094029390931760ff60b81b1916600160b81b9215159290920291909117825560a084015180519495508594929361117593928501929101906118c9565b5060c09190910151600291820180546001600160a01b0319166001600160a01b039283161790558554336000818152602094855260408082208d861680845290875291819020939093558251908152928a16938301939093527f27ddb6a1b3c833891ebc1fd1cc7818f635546853d154e5c599981c41f17304b1910160405180910390a25050505b50505050565b33600090815260208190526040902080546001600160a01b03166112395760405162461bcd60e51b815260040161026390611f26565b6006810154610100900460ff16156112635760405162461bcd60e51b815260040161026390611eba565b6001600160a01b0382166112aa5760405162461bcd60e51b815260206004820152600e60248201526d24b73b30b634b21036b2b6b132b960911b6044820152606401610263565b6005018054600181018255600091825260209091200180546001600160a01b0319166001600160a01b0392909216919091179055565b6001600160a01b038082166000908152602081905260409020548291166113195760405162461bcd60e51b815260040161026390611e8d565b6001600160a01b03821660009081526020819052604090206006810154610100900460ff161561135b5760405162461bcd60e51b815260040161026390611eba565b600681015460ff166113a15760405162461bcd60e51b815260206004820152600f60248201526e15da5b1b081b9bdd081cd9585b1959608a1b6044820152606401610263565b6001600160a01b0383166000908152600260209081526040808320338452909152902054806114025760405162461bcd60e51b815260206004820152600d60248201526c4e6f742061207472757374656560981b6044820152606401610263565b6001600160a01b03841660009081526001602081905260408220906114279084611ee9565b8154811061143757611437611f10565b600091825260209091206003909102018054909150600160b81b900460ff166114955760405162461bcd60e51b815260206004820152601060248201526f496e616374697665207472757374656560801b6044820152606401610263565b805460ff60b01b1916600160b01b17815560405133906001600160a01b038716907ff6213aabdf7a03b0f7998509f7f15fc495f7bfa66f62be83429112303b93160e90600090a35050505050565b33600090815260208190526040902080546001600160a01b03166115195760405162461bcd60e51b815260040161026390611f26565b6006810154610100900460ff16156115435760405162461bcd60e51b815260040161026390611eba565b3360009081526002602090815260408083206001600160a01b0386168452909152902054806115a85760405162461bcd60e51b8152602060048201526011602482015270151c9d5cdd1959481b9bdd08199bdd5b99607a1b6044820152606401610263565b3360009081526001602081905260408220906115c49084611ee9565b815481106115d4576115d4611f10565b600091825260209182902060039190910201805460ff60a81b1916600160a81b1781556040516001600160a01b038716815290925033917f903d8631b0e8e95b572d5e82b43f8a49aec2a659e85aa66baf14de38c80ffd8f910160405180910390a250505050565b6001600160a01b038082166000908152602081905260409020548291166116755760405162461bcd60e51b815260040161026390611e8d565b81336001600160a01b038216146116bf5760405162461bcd60e51b815260206004820152600e60248201526d2737ba103bb4b6361037bbb732b960911b6044820152606401610263565b6001600160a01b0383166000908152602081905260409020600681015460ff1661171d5760405162461bcd60e51b815260206004820152600f60248201526e15da5b1b081b9bdd081cd9585b1959608a1b6044820152606401610263565b6006810154610100900460ff161561176a5760405162461bcd60e51b815260206004820152601060248201526f105b1c9958591e48195e1958dd5d195960821b6044820152606401610263565b6117738461078c565b6117b75760405162461bcd60e51b815260206004820152601560248201527410dbdb9cd95b9cdd5cc81b9bdd081c995858da1959605a1b6044820152606401610263565b60028101546001600160a01b03166118035760405162461bcd60e51b815260206004820152600f60248201526e139bc81d985d5b1d081b1a5b9ad959608a1b6044820152606401610263565b60068101805461ff001916610100179055600281015460408051633a276e5b60e11b815290516001600160a01b039092169163744edcb69160048082019260009290919082900301818387803b15801561185c57600080fd5b505af1158015611870573d6000803e3d6000fd5b5050505060018101546040516001600160a01b03918216918616907ff046afe65280591e057719a2a0b1ddfddb8c2e3991e375b36d8765a78fd5191a906118bb906003860190611f50565b60405180910390a350505050565b82805482825590600052602060002090810192821561191e579160200282015b8281111561191e57825182546001600160a01b0319166001600160a01b039091161782556020909201916001909101906118e9565b5061192a92915061192e565b5090565b5b8082111561192a576000815560010161192f565b80356001600160a01b038116811461195a57600080fd5b919050565b634e487b7160e01b600052604160045260246000fd5b60008060006060848603121561198a57600080fd5b61199384611943565b92506119a160208501611943565b9150604084013567ffffffffffffffff808211156119be57600080fd5b818601915086601f8301126119d257600080fd5b8135818111156119e4576119e461195f565b604051601f8201601f19908116603f01168101908382118183101715611a0c57611a0c61195f565b81604052828152896020848701011115611a2557600080fd5b8260208601602083013760006020848301015280955050505050509250925092565b600080600060608486031215611a5c57600080fd5b611a6584611943565b9250611a7360208501611943565b9150611a8160408501611943565b90509250925092565b600060208284031215611a9c57600080fd5b611aa582611943565b9392505050565b60008151808452602080850194506020840160005b83811015611ae65781516001600160a01b031687529582019590820190600101611ac1565b509495945050505050565b600060208083018184528085518083526040925060408601915060408160051b87010184880160005b83811015611bb657888303603f19018552815180516001600160a01b03168452878101511515888501528681015115158785015260608082015115159085015260808082015115159085015260a08082015160e08287018190529190611b8283880182611aac565b9250505060c0808301519250611ba2818701846001600160a01b03169052565b509588019593505090860190600101611b1a565b509098975050505050505050565b60008060408385031215611bd757600080fd5b611be083611943565b946020939093013593505050565b6000815180845260005b81811015611c1457602081850181015186830182015201611bf8565b506000602082860101526020601f19601f83011685010191505092915050565b60208152611c4e6020820183516001600160a01b03169052565b60006020830151611c6a60408401826001600160a01b03169052565b5060408301516001600160a01b0381166060840152506060830151610120806080850152611c9c610140850183611bee565b91506080850151601f19808685030160a0870152611cba8483611aac565b935060a08701519150808685030160c087015250611cd88382611aac565b92505060c0850151611cee60e086018215159052565b5060e0850151610100611d048187018315159052565b959095015193019290925250919050565b60008060408385031215611d2857600080fd5b611d3183611943565b9150611d3f60208401611943565b90509250929050565b600181811c90821680611d5c57607f821691505b60208210810361091957634e487b7160e01b600052602260045260246000fd5b601f821115611dc8576000816000526020600020601f850160051c81016020861015611da55750805b601f850160051c820191505b81811015611dc457828155600101611db1565b5050505b505050565b815167ffffffffffffffff811115611de757611de761195f565b611dfb81611df58454611d48565b84611d7c565b602080601f831160018114611e305760008415611e185750858301515b600019600386901b1c1916600185901b178555611dc4565b600085815260208120601f198616915b82811015611e5f57888601518255948401946001909101908401611e40565b5085821015611e7d5787850151600019600388901b60f8161c191681555b5050505050600190811b01905550565b60208082526013908201527215da5b1b08191bd95cc81b9bdd08195e1a5cdd606a1b604082015260600190565b60208082526015908201527415da5b1b08185b1c9958591e48195e1958dd5d1959605a1b604082015260600190565b81810381811115611f0a57634e487b7160e01b600052601160045260246000fd5b92915050565b634e487b7160e01b600052603260045260246000fd5b60208082526010908201526f15da5b1b081b9bdd0818dc99585d195960821b604082015260600190565b6000602080835260008454611f6481611d48565b8060208701526040600180841660008114611f865760018114611fa257611fd2565b60ff19851660408a0152604084151560051b8a01019550611fd2565b89600052602060002060005b85811015611fc95781548b8201860152908301908801611fae565b8a016040019650505b50939897505050505050505056fea26469706673582212207bab90ad84f83ef3c7ee59a8f70add098ab0abee29490a526f1b5b1d6e4711c564736f6c63430008180033",
  "linkReferences": {},
  "deployedLinkReferences": {}
}